:108000003EC0CDD0803E70CD3880C03EAACD4180EC
:10801000C011E803CDE5803E55CD4180C011E80395
:10802000CDE5803EFFCD4180C0CD3F803E71CD3853
:1080300080CD7880CD3F80C9F5CD9C80F1180218A5
:1080400068570608CB123805CDCB801803CDC48005
:10805000CDB680CDBD8010ECCDC480CDB680CDDC5A
:108060008047CDBD80CB782002AFC9CDCB80CDB6C7
:1080700080CDC4803E02B7C90608CDC480CDB6808D
:10808000CDDC8037CB7F20013FCB12CDBD8010ED02
:10809000CDCB80CDB680CDBD807ABFC9CDB680CDE9
:1080A000C480CDCB80CDBD80C9CDCB80CDBD80CDB2
:1080B000B680CDC480C93AE980CBC718133AE980AD
:1080C000CB87180C3AE980CBFF18053AE980CBBF83
:1080D000C506000E0CED7932E980C1C9C506000E57
:0A80E0000CED78C1C90E0AF7C900C3
:00000001FF
